:0300000002090FE3
:0C090F00787FE4F6D8FD758120020956BF
:100C850073657454696D65000A000000000000007A
:0C0C950000000000000000000000000053
:100CA1005100693F065B4F666D7D077F6F777C3929
:0A0CB1005E79718041006800C10007
:100B2000E4900033F0A3F0C2039000397420F0A3E6
:100B30007429F090003C7403F0D2B77F107E271226
:100B40000C66120CD3120D3930030690006EE0F5DE
:100B5000902003F47B017A00793512083A7B017A00
:080B600000793512073780E02F
:0B07370090003DEBF0A3EAF0A3E9F016
:10074200A3E4F0A3740AF012037375F00A84246917
:10075200F582E43400F583E0F590A20092979000D0
:100762000212038CFF900068E06F6004B200EFF0A9
:10077200C2B2900040E0FEA3E0FF120C66D2B2903B
:10078200003DE0FBA3E0FAA3E0F912037375F00A5F
:1007920084746925F0F582E43400F583E0F59090E5
:1007A200000312038C54041313543F24FF9297C284
:1007B200B3900040E0FEA3E0FF120C66D2B39000BB
:1007C2003DE0FBA3E0FAA3E0F990000112038C756F
:1007D200F00A842469F582E43400F583E0F5909010
:1007E200000312038C5402C31324FF9297C2B490E5
:1007F2000040E0FEA3E0FF120C66D2B490003DE0A0
:10080200FBA3E0FAA3E0F990000112038C75F00A51
:1008120084746925F0F582E43400F583E0F5909064
:10082200000312038C139297C2B5900040E0FEA31E
:07083200E0FF120C66D2B5D5
:01083900229C
:10083A0090003DEBF0A3EAF0A3E9F07F0212000377
:10084A00EF547FFF90003DE0FBA3E0FAA3E0F990AC
:10085A000002EF1203FE90000212038CFF120CE852
:10086A0090003DE0FBA3E0FAA3E0F9900002EF124A
:10087A0003FE7F03120003EF547FFF90003DE0FB6D
:10088A00A3E0FAA3E0F9900001EF1203FE90000141
:10089A0012038CFF120CE890003DE0FBA3E0FAA3E0
:1008AA00E0F9900001EF1203FE7F04120003EF54F7
:1008BA003FFF90003DE0FBA3E0FAA3E0F9EF12034B
:1008CA00EC90003DE0FBA3E0FAA3E0F9120373FF0A
:1008DA00120CE890003DE0FBA3E0FAA3E0F9EF1266
:1008EA0003EC7F06120003EF5407FF90003DE0FB84
:1008FA00A3E0FAA3E0F9900003EF1203FE900003CD
:05090A0074010203B9B5
:100A7A00900084EBF0A3EAF0A3E9F09000021203DD
:100A8A008CFD7F02120CBC900084E0FBA3E0FAA369
:100A9A00E0F990000112038CFD7F03120CBC900058
:100AAA0084E0FBA3E0FAA3E0F9120373FD7F0412CA
:100ABA000CBC900084E0FBA3E0FAA3E0F9900003E9
:090ACA0012038CFD7F06020CBC36
:100C44007F107E27120C6620B703A202227F507EFB
:100C5400C3120C6630B703A20222200203D3800120
:020C6400C322A9
:0B099B0090004EEBF0A3EAF0A3E9F09F
:1009A600A374FFF0A3740CF0A37485F078547C0054
:1009B6007D017BFF7A0C798D7E007F1412034D90AA
:1009C6000032E07003FEFF2290004EE0F9A3E0FA49
:1009D600A3E090007DC9F0A3EAF0A3E9F0A3E4F058
:1009E600A37407F07B017A007954120A1278547CBA
:1009F600007D01900051E0FBA3E0FAA3E0F91205A7
:0B0A0600F7EF7004FE7F0122E4FEFF0A
:010A110022C2
:03002300020AD3FB
:0B0AD300C0E0C083C082C0D075D00816
:100ADE0030982FC298AF99900032E0FE04F0EEFDF0
:100AEE003395E0FC74002DF58274003CF583EFF035
:100AFE00900032E0B43202E4F0EFB40A0590003216
:090B0E00E4F0309904C299C2011F
:090B1700D0D0D082D083D0E032AE
:100B6800900087EBF0A3EAF0A3E9F0900087E0FBA0
:100B7800A3E0FAA3E0F9120373FF640A601AEF60B6
:100B880017900087A3E475F001120436A9F0FA1251
:0D0B98000373FF120D2780D37F0A020D2783
:080D27002001FDD2018F992289
:100CD300E4900032F0120614120D2F120D35E4F5D4
:050CE300917592FF2253
:1006140090003D7402F0A37458F07B007A0079F9DD
:10062400A3EBF0A3F0A3E9F07E007D007C001203AD
:1006340073FFE490004212046D90003FE0FBA3E4DA
:1006440075F001120420A9F0FA120373FFE4FCFD13
:10065400FE90004612046D90003FE0FBA3E475F0A9
:1006640001120420A9F0FA120373FFE4FCFDFE90CA
:10067400004A12046D900046E0FCA3E0FDA3E0FEF6
:10068400A3E0FF780812045AC004C005C006C007DE
:10069400900042E0FCA3E0FDA3E0FEA3E0FF78109D
:1006A40012045AD003D002D001D000EF2BFFEE3A4F
:1006B400FEED39FDEC38FC90004AE0F8A3E0F9A324
:1006C400E0FAA3E02FFFEA3EFEE93DFDE83CFC75BD
:1006D40098507589201201BEE4FBFA7940784112E2
:1006E4000121E4FBFAF97842120121C004C005C0DB
:1006F40006C00790003DE0FCA3E0FDEC1201C3A896
:1007040004A905AA06AB07D007D006D005D0041269
:100714000121A804A905AA06AB07E4FFFE7D807C9D
:10072400431200291201FC8F8D858D8BD28ED2ACA1
:02073400D2AF42
:0107360022A0
:040D350075B0032270
:040D3900E4F5B0220B
:0F0CF900E4FFFE000FBF00010EEF640A4E70F41F
:010D080022C8
:040C6600AD07AC0624
:100C6A00E4FBFAC3EB9DEC6480F8EA648098500ACE
:0A0C7A00120CF90BBB00010A80E91F
:010C8400224D
:0F0D0900D2B0D2B1120CF9C2B0120CF9C2B122A1
:0F0D1800C2B0D2B1120CF9D2B0120CF9C2B12292
:0B0BFE00120C21120C09AF03120C2195
:100C0900E4FDD2B1120CF930B009EDC394FF5003E1
:080C19000D80F4C2B1020CF9D8
:100C2100AD07E4FCED25E0FDC2B192B0120CF9D2A2
:100C3100B1120CF90CECB408EBC2B1120CF9D2B040
:030C4100020CF9A9
:100BD600C2B1120CF9D2B0E4FCD2B1120CF9ED2577
:100BE600E0FFA2B0E4334FFDC2B1120CF90CECB435
:070BF60008E7120CF9AF053E
:010BFD0022D5
:100CBC00AB05AA07120D097FA2120C21120C09AF69
:070CCC0002120BFE020D18DD
:02000300AB0749
:10000500120D097FA2120BFE120D097FA3120C21FE
:0D001500120C09120BD6AD07120D18AF0525
:0100220022BB
:100BA500E4FD7F02120CBCE4FD7F03120CBCE4FDE6
:100BB5007F04120CBC7D017F05120CBC7D087F06ED
:100BC500120CBC7D087F07120CBC7D187F08020C37
:010BD500BC63
:060D2F00E4FDFF020CBC14
:100CE800EF540FFEEF54F0C4540F75F00AA42EFF12
:010CF80022D9
:10002600020268E86480F8E933E83360110460F09E
:10003600ED33EC337009E8FCE9FDEAFEEBFF220440
:1000460060DED3EB9FEA9EE99DE8C2E78CF0C2F73B
:1000560095F0400CE8CCF8E9CDF9EACEFAEBCFFB07
:1000660012023385D0F05804700320D5B3E804702B
:10007600075002B2D502027292D5EC0460F7E4CCC6
:10008600C0E0C398F8603B94186008400DD0E0FBD0
:1000960002024AE4FBFAC9FC8028E830E406E4C917
:1000A600FBE4CAFCE830E305E4C9CACBFCE8540724
:1000B6006010F8C3E913F9EA13FAEB13FBEC13FC2F
:1000C600D8F130F52FC3E49CFCEF9BFFEE9AFEEDD2
:1000D60099FDD0E0FBEF4E4D4C701222DB0302027D
:1000E6006FEC2CFCEF33FFEE33FEED33FDED30E726
:1000F600EB02024AEF2BFFEE3AFEED39FDD0E0FBB4
:1001060050130BBB0003020272ED13FDEE13FEEF5C
:0801160013FFEC13FC02024A86
:10011E00020272EC5D046005E85904700302026885
:10012E00120233580460F6EC4860F2EC7004FDFEE7
:10013E00FF22C860DB2481C85009C39860025006B4
:10014E0002026F9850CAF582E9294B4A7005AB82BC
:10015E0002025E75F0007C1A7880C3EF9BEE9AED7A
:10016E0099400DC3EF9BFFEE9AFEED99FDE842F02C
:10017E00DC23ACF0D0E0FFD0E0FED0E0FDAB82207F
:10018E00E7101BEB60BAEC2CFCEF33FFEE33FEED09
:10019E0033FD02024AE803F830E705C0F075F000BF
:1001AE00EF2FFFEE33FEED33FD40B830E7C280AAED
:1001BE0075F020800E75F010800575F0087D007EBC
:1001CE00007F003392D530D50312044CEC3340102F
:1001DE00EF33FFEE33FEED33FDEC33FCD5F0ED22C5
:0E01EE00E5F0247EA2D513CC92E7CDCEFF2201
:1001FC00EDD2E7CD33EC3392D524814006E4FFFEFB
:10020C00FDFC22FCE4CFCECDCC24E0501174FF8059
:10021C00EDC3CC13CCCD13CDCE13CECF13CF0470F6
:07022C00F030D5DE02044CA6
:10023300E9D2E7C933E833F892D5EDD2E7CD33EC11
:0702430033FC5002B2D5228A
:10024A00EC30E7100FBF000C0EBE00080DBD000415
:10025A000BEB6014A2D5EB13FCED92E7FD2274FFC1
:10026A00FCFDFEFF22E480F8A2D574FF13FC7D801A
:03027A00E480EF2E
:10091B00020B20E493A3F8E493A34003F68001F2C7
:10092B0008DFF48029E493A3F85407240CC8C333DD
:10093B00C4540F4420C8834004F456800146F6DFAC
:10094B00E4800B0102040810204080900CA1E47E8F
:10095B00019360BCA3FF543F30E509541FFEE493A1
:10096B00A360010ECF54C025E060A840B8E493A368
:10097B00FAE493A3F8E493A3C8C582C8CAC583CA93
:10098B00F0A3C8C582C8CAC583CADFE9DEE780BE4B
:010CBB000038
:10027D00E709F608DFFA8046E709F208DFFA803E63
:10028D0088828C83E709F0A3DFFA8032E309F60850
:10029D00DFFA8078E309F208DFFA807088828C83B8
:1002AD00E309F0A3DFFA806489828A83E0A3F6086C
:1002BD00DFFA805889828A83E0A3F208DFFA804C46
:1002CD0080D280FA80C680D4806980F2803380101D
:1002DD0080A680EA809A80A880DA80E280CA803386
:1002ED0089828A83ECFAE493A3C8C582C8CCC583FE
:1002FD00CCF0A3C8C582C8CCC583CCDFE9DEE780CE
:10030D000D89828A83E493A3F608DFF9ECFAA9F04C
:10031D00EDFB2289828A83ECFAE0A3C8C582C8CCA2
:10032D00C583CCF0A3C8C582C8CCC583CCDFEADEBB
:10033D00E880DB89828A83E493A3F208DFF980CC1D
:10034D0088F0EF60010E4E60C388F0ED2402B40416
:10035D000050B9F582EB2402B4040050AF232345BD
:06036D0082239002CD7313
:10037300BB010689828A83E0225002E722BBFE0288
:09038300E32289828A83E49322BB
:10038C00BB010CE58229F582E5833AF583E0225026
:10039C0006E92582F8E622BBFE06E92582F8E22270
:0D03AC00E58229F582E5833AF583E493228A
:1003B900BB010FF8E58229F582E5833AF583E02848
:1003C900F0225009C58229F8E58226F622BBFE09EA
:1003D900C58229F8E22582F222F8EA2583F583E924
:0303E90093282234
:1003EC00BB010689828A83F0225002F722BBFE01F0
:0203FC00F322EA
:1003FE00F8BB010DE58229F582E5833AF583E8F035
:10040E00225006E92582C8F622BBFE05E92582C8E0
:02041E00F222C8
:10042000C5F0F8A3E028F0C5F0F8E5821582700267
:060430001583E038F02204
:10043600A3F8E0C5F025F0F0E58215827002158379
:06044600E0C838F0E822D6
:0E044C00C3E49FFFE49EFEE49DFDE49CFC22C1
:10045A00E8600FEFC333FFEE33FEED33FDEC33FC00
:03046A00D8F122A4
:0C046D00ECF0A3EDF0A3EEF0A3EFF02202
:10047900E3F5F009E208B5F06D606B80F3E3F5F0A0
:1004890009E608B5F060605E80F387F009E608B513
:10049900F054605280F487F009E208B5F0486046EC
:1004A90080F488828C8387F009E0A3B5F038603640
:1004B90080F488828C8387F009E493A3B5F02760E0
:1004C9002580F388828C83E3F5F009E0A3B5F01663
:1004D900601480F388828C83E3F5F009E493A3B573
:1004E900F004600280F20205A4808580E7808E8096
:1004F900D2803C8015806C807E809B80B5808B800B
:10050900A1804F8070803A0205B089828A83ECFA13
:10051900E493F5F0A3C8C582C8CCC583CCE493A302
:10052900C8C582C8CCC583CCB5F070606E80E1893E
:10053900828A83E493F5F0A3E208B5F05E605C80FB
:10054900F289828A83E0F5F0A3E608B5F04D604BA5
:1005590080F389828A83E0F5F0A3E208B5F03C6074
:100569003A80F389828A83E493F5F0A3E608B5F02B
:100579002A602880F2805389828A83ECFAE493F511
:10058900F0A3C8C582C8CCC583CCE0A3C8C582C8BE
:10059900CCC583CCB5F004600280E27FFFB5F002E0
:1005A9000F2240027F012289828A83ECFAE0F5F06A
:1005B900A3C8C582C8CCC583CCE0A3C8C582C8CCB2
:1005C900C583CCB5F0D560D380E389828A83ECFA00
:1005D900E0F5F0A3C8C582C8CCC583CCE493A3C811
:1005E900C582C8CCC583CCB5F0B160AF80E288F0D4
:1005F900ED2402B4040050A3F582EB2402B40400F4
:0B060900509923234582239004F273D4
:100A120090007AEBF0A3EAF0A3E9F0E4900082F010
:100A2200A3F090008074FFF5F012043645F0603CAC
:100A320090007DE0FBA3E0FAA3E0F9120373FF90BC
:100A4200007AE0FBA3E0FAA3E0F9900082E475F0FB
:100A52000112043685F082F583EF1203FEEF60C2C5
:100A620090007EE475F00112042080B690007AE0D6
:080A7200FBA3E0FAA3E0F92266
:00000001FF
